{
  "_format": "hh-sol-artifact-1",
  "contractName": "EvidenceStorage",
  "sourceName": "contracts/EvStorage.sol",
  "abi": [
    {
      "anonymous": false,
      "inputs": [
        {
          "indexed": false,
          "internalType": "uint256",
          "name": "id",
          "type": "uint256"
        },
        {
          "indexed": false,
          "internalType": "string",
          "name": "imageHash",
          "type": "string"
        },
        {
          "indexed": false,
          "internalType": "string",
          "name": "description",
          "type": "string"
        },
        {
          "indexed": false,
          "internalType": "uint256",
          "name": "timestamp",
          "type": "uint256"
        },
        {
          "indexed": false,
          "internalType": "address",
          "name": "uploader",
          "type": "address"
        }
      ],
      "name": "EvidenceStored",
      "type": "event"
    },
    {
      "inputs": [
        {
          "internalType": "uint256",
          "name": "",
          "type": "uint256"
        }
      ],
      "name": "allEvidences",
      "outputs": [
        {
          "internalType": "uint256",
          "name": "id",
          "type": "uint256"
        },
        {
          "internalType": "string",
          "name": "imageHash",
          "type": "string"
        },
        {
          "internalType": "string",
          "name": "description",
          "type": "string"
        },
        {
          "internalType": "uint256",
          "name": "timestamp",
          "type": "uint256"
        },
        {
          "internalType": "address",
          "name": "uploader",
          "type": "address"
        }
      ],
      "stateMutability": "view",
      "type": "function"
    },
    {
      "inputs": [],
      "name": "evidenceCount",
      "outputs": [
        {
          "internalType": "uint256",
          "name": "",
          "type": "uint256"
        }
      ],
      "stateMutability": "view",
      "type": "function"
    },
    {
      "inputs": [
        {
          "internalType": "uint256",
          "name": "",
          "type": "uint256"
        }
      ],
      "name": "evidences",
      "outputs": [
        {
          "internalType": "uint256",
          "name": "id",
          "type": "uint256"
        },
        {
          "internalType": "string",
          "name": "imageHash",
          "type": "string"
        },
        {
          "internalType": "string",
          "name": "description",
          "type": "string"
        },
        {
          "internalType": "uint256",
          "name": "timestamp",
          "type": "uint256"
        },
        {
          "internalType": "address",
          "name": "uploader",
          "type": "address"
        }
      ],
      "stateMutability": "view",
      "type": "function"
    },
    {
      "inputs": [],
      "name": "getAllEvidences",
      "outputs": [
        {
          "components": [
            {
              "internalType": "uint256",
              "name": "id",
              "type": "uint256"
            },
            {
              "internalType": "string",
              "name": "imageHash",
              "type": "string"
            },
            {
              "internalType": "string",
              "name": "description",
              "type": "string"
            },
            {
              "internalType": "uint256",
              "name": "timestamp",
              "type": "uint256"
            },
            {
              "internalType": "address",
              "name": "uploader",
              "type": "address"
            }
          ],
          "internalType": "struct EvidenceStorage.Evidence[]",
          "name": "",
          "type": "tuple[]"
        }
      ],
      "stateMutability": "view",
      "type": "function"
    },
    {
      "inputs": [
        {
          "internalType": "string",
          "name": "_imageHash",
          "type": "string"
        },
        {
          "internalType": "string",
          "name": "_description",
          "type": "string"
        }
      ],
      "name": "storeEvidence",
      "outputs": [],
      "stateMutability": "nonpayable",
      "type": "function"
    }
  ],
  "bytecode": "0x608060405234801561001057600080fd5b506110b4806100206000396000f3fe608060405234801561001057600080fd5b50600436106100575760003560e01c80632e4546cd1461005c57806353621b6914610090578063947ea5ac146100ac578063a2ed5af0146100e0578063cd298ea7146100fe575b600080fd5b6100766004803603810190610071919061082a565b61011c565b604051610087959493929190610937565b60405180910390f35b6100aa60048036038101906100a59190610acd565b610282565b005b6100c660048036038101906100c1919061082a565b610477565b6040516100d7959493929190610937565b60405180910390f35b6100e86105ed565b6040516100f59190610b45565b60405180910390f35b6101066105f3565b6040516101139190610d07565b60405180910390f35b600060205280600052604060002060009150905080600001549080600101805461014590610d58565b80601f016020809104026020016040519081016040528092919081815260200182805461017190610d58565b80156101be5780601f10610193576101008083540402835291602001916101be565b820191906000526020600020905b8154815290600101906020018083116101a157829003601f168201915b5050505050908060020180546101d390610d58565b80601f01602080910402602001604051908101604052809291908181526020018280546101ff90610d58565b801561024c5780601f106102215761010080835404028352916020019161024c565b820191906000526020600020905b81548152906001019060200180831161022f57829003601f168201915b5050505050908060030154908060040160009054906101000a900473ffffffffffffffffffffffffffffffffffffffff16905085565b6001600081548092919061029590610db8565b919050555060006040518060a0016040528060015481526020018481526020018381526020014281526020013373ffffffffffffffffffffffffffffffffffffffff1681525090508060008060015481526020019081526020016000206000820151816000015560208201518160010190816103119190610fac565b5060408201518160020190816103279190610fac565b506060820151816003015560808201518160040160006101000a81548173ffffffffffffffffffffffffffffffffffffffff021916908373ffffffffffffffffffffffffffffffffffffffff16021790555090505060028190806001815401808255809150506001900390600052602060002090600502016000909190919091506000820151816000015560208201518160010190816103c79190610fac565b5060408201518160020190816103dd9190610fac565b506060820151816003015560808201518160040160006101000a81548173ffffffffffffffffffffffffffffffffffffffff021916908373ffffffffffffffffffffffffffffffffffffffff16021790555050507f8609167521e0b3f9a726e7259282f905de85d809870bebd38f1a7edd8011ba736001548484423360405161046a959493929190610937565b60405180910390a1505050565b6002818154811061048757600080fd5b90600052602060002090600502016000915090508060000154908060010180546104b090610d58565b80601f01602080910402602001604051908101604052809291908181526020018280546104dc90610d58565b80156105295780601f106104fe57610100808354040283529160200191610529565b820191906000526020600020905b81548152906001019060200180831161050c57829003601f168201915b50505050509080600201805461053e90610d58565b80601f016020809104026020016040519081016040528092919081815260200182805461056a90610d58565b80156105b75780601f1061058c576101008083540402835291602001916105b7565b820191906000526020600020905b81548152906001019060200180831161059a57829003601f168201915b5050505050908060030154908060040160009054906101000a900473ffffffffffffffffffffffffffffffffffffffff16905085565b60015481565b60606002805480602002602001604051908101604052809291908181526020016000905b828210156107d757838290600052602060002090600502016040518060a00160405290816000820154815260200160018201805461065490610d58565b80601f016020809104026020016040519081016040528092919081815260200182805461068090610d58565b80156106cd5780601f106106a2576101008083540402835291602001916106cd565b820191906000526020600020905b8154815290600101906020018083116106b057829003601f168201915b505050505081526020016002820180546106e690610d58565b80601f016020809104026020016040519081016040528092919081815260200182805461071290610d58565b801561075f5780601f106107345761010080835404028352916020019161075f565b820191906000526020600020905b81548152906001019060200180831161074257829003601f168201915b50505050508152602001600382015481526020016004820160009054906101000a900473ffffffffffffffffffffffffffffffffffffffff1673ffffffffffffffffffffffffffffffffffffffff1673ffffffffffffffffffffffffffffffffffffffff168152505081526020019060010190610617565b50505050905090565b6000604051905090565b600080fd5b600080fd5b6000819050919050565b610807816107f4565b811461081257600080fd5b50565b600081359050610824816107fe565b92915050565b6000602082840312156108405761083f6107ea565b5b600061084e84828501610815565b91505092915050565b610860816107f4565b82525050565b600081519050919050565b600082825260208201905092915050565b60005b838110156108a0578082015181840152602081019050610885565b60008484015250505050565b6000601f19601f8301169050919050565b60006108c882610866565b6108d28185610871565b93506108e2818560208601610882565b6108eb816108ac565b840191505092915050565b600073ffffffffffffffffffffffffffffffffffffffff82169050919050565b6000610921826108f6565b9050919050565b61093181610916565b82525050565b600060a08201905061094c6000830188610857565b818103602083015261095e81876108bd565b9050818103604083015261097281866108bd565b90506109816060830185610857565b61098e6080830184610928565b9695505050505050565b600080fd5b600080fd5b7f4e487b7100000000000000000000000000000000000000000000000000000000600052604160045260246000fd5b6109da826108ac565b810181811067ffffffffffffffff821117156109f9576109f86109a2565b5b80604052505050565b6000610a0c6107e0565b9050610a1882826109d1565b919050565b600067ffffffffffffffff821115610a3857610a376109a2565b5b610a41826108ac565b9050602081019050919050565b82818337600083830152505050565b6000610a70610a6b84610a1d565b610a02565b905082815260208101848484011115610a8c57610a8b61099d565b5b610a97848285610a4e565b509392505050565b600082601f830112610ab457610ab3610998565b5b8135610ac4848260208601610a5d565b91505092915050565b60008060408385031215610ae457610ae36107ea565b5b600083013567ffffffffffffffff811115610b0257610b016107ef565b5b610b0e85828601610a9f565b925050602083013567ffffffffffffffff811115610b2f57610b2e6107ef565b5b610b3b85828601610a9f565b9150509250929050565b6000602082019050610b5a6000830184610857565b92915050565b600081519050919050565b600082825260208201905092915050565b6000819050602082019050919050565b610b95816107f4565b82525050565b600082825260208201905092915050565b6000610bb782610866565b610bc18185610b9b565b9350610bd1818560208601610882565b610bda816108ac565b840191505092915050565b610bee81610916565b82525050565b600060a083016000830151610c0c6000860182610b8c565b5060208301518482036020860152610c248282610bac565b91505060408301518482036040860152610c3e8282610bac565b9150506060830151610c536060860182610b8c565b506080830151610c666080860182610be5565b508091505092915050565b6000610c7d8383610bf4565b905092915050565b6000602082019050919050565b6000610c9d82610b60565b610ca78185610b6b565b935083602082028501610cb985610b7c565b8060005b85811015610cf55784840389528151610cd68582610c71565b9450610ce183610c85565b925060208a01995050600181019050610cbd565b50829750879550505050505092915050565b60006020820190508181036000830152610d218184610c92565b905092915050565b7f4e487b7100000000000000000000000000000000000000000000000000000000600052602260045260246000fd5b60006002820490506001821680610d7057607f821691505b602082108103610d8357610d82610d29565b5b50919050565b7f4e487b7100000000000000000000000000000000000000000000000000000000600052601160045260246000fd5b6000610dc3826107f4565b91507fffffffffffffffffffffffffffffffffffffffffffffffffffffffffffffffff8203610df557610df4610d89565b5b600182019050919050565b60008190508160005260206000209050919050565b60006020601f8301049050919050565b600082821b905092915050565b600060088302610e627fffffffffffffffffffffffffffffffffffffffffffffffffffffffffffffffff82610e25565b610e6c8683610e25565b95508019841693508086168417925050509392505050565b6000819050919050565b6000610ea9610ea4610e9f846107f4565b610e84565b6107f4565b9050919050565b6000819050919050565b610ec383610e8e565b610ed7610ecf82610eb0565b848454610e32565b825550505050565b600090565b610eec610edf565b610ef7818484610eba565b505050565b5b81811015610f1b57610f10600082610ee4565b600181019050610efd565b5050565b601f821115610f6057610f3181610e00565b610f3a84610e15565b81016020851015610f49578190505b610f5d610f5585610e15565b830182610efc565b50505b505050565b600082821c905092915050565b6000610f8360001984600802610f65565b1980831691505092915050565b6000610f9c8383610f72565b9150826002028217905092915050565b610fb582610866565b67ffffffffffffffff811115610fce57610fcd6109a2565b5b610fd88254610d58565b610fe3828285610f1f565b600060209050601f8311600181146110165760008415611004578287015190505b61100e8582610f90565b865550611076565b601f19841661102486610e00565b60005b8281101561104c57848901518255600182019150602085019450602081019050611027565b868310156110695784890151611065601f891682610f72565b8355505b6001600288020188555050505b50505050505056fea26469706673582212206e78ee001d9e59379d899626db84b53e6ceef74595ef4e57524b1e8c3689db1964736f6c63430008130033",
  "linkReferences": {},
  "deployedLinkReferences": {}
}