{
  "_format": "hh-sol-artifact-1",
  "contractName": "EvidenceStorage",
  "sourceName": "contracts/EvStorage.sol",
  "abi": [
    {
      "anonymous": false,
      "inputs": [
        {
          "indexed": false,
          "internalType": "uint256",
          "name": "id",
          "type": "uint256"
        },
        {
          "indexed": false,
          "internalType": "string",
          "name": "ipfsHash",
          "type": "string"
        },
        {
          "indexed": false,
          "internalType": "string",
          "name": "fileName",
          "type": "string"
        }
      ],
      "name": "EvidenceStored",
      "type": "event"
    },
    {
      "inputs": [
        {
          "internalType": "uint256",
          "name": "",
          "type": "uint256"
        }
      ],
      "name": "allEvidences",
      "outputs": [
        {
          "internalType": "uint256",
          "name": "id",
          "type": "uint256"
        },
        {
          "internalType": "string",
          "name": "ipfsHash",
          "type": "string"
        },
        {
          "internalType": "string",
          "name": "fileName",
          "type": "string"
        }
      ],
      "stateMutability": "view",
      "type": "function"
    },
    {
      "inputs": [],
      "name": "evidenceCount",
      "outputs": [
        {
          "internalType": "uint256",
          "name": "",
          "type": "uint256"
        }
      ],
      "stateMutability": "view",
      "type": "function"
    },
    {
      "inputs": [
        {
          "internalType": "uint256",
          "name": "",
          "type": "uint256"
        }
      ],
      "name": "evidences",
      "outputs": [
        {
          "internalType": "uint256",
          "name": "id",
          "type": "uint256"
        },
        {
          "internalType": "string",
          "name": "ipfsHash",
          "type": "string"
        },
        {
          "internalType": "string",
          "name": "fileName",
          "type": "string"
        }
      ],
      "stateMutability": "view",
      "type": "function"
    },
    {
      "inputs": [],
      "name": "getAllEvidences",
      "outputs": [
        {
          "components": [
            {
              "internalType": "uint256",
              "name": "id",
              "type": "uint256"
            },
            {
              "internalType": "string",
              "name": "ipfsHash",
              "type": "string"
            },
            {
              "internalType": "string",
              "name": "fileName",
              "type": "string"
            }
          ],
          "internalType": "struct EvidenceStorage.Evidence[]",
          "name": "",
          "type": "tuple[]"
        }
      ],
      "stateMutability": "view",
      "type": "function"
    },
    {
      "inputs": [
        {
          "internalType": "string",
          "name": "_ipfsHash",
          "type": "string"
        },
        {
          "internalType": "string",
          "name": "_fileName",
          "type": "string"
        }
      ],
      "name": "storeEvidence",
      "outputs": [],
      "stateMutability": "nonpayable",
      "type": "function"
    }
  ],
  "bytecode": "0x608060405234801561001057600080fd5b50610e9e806100206000396000f3fe608060405234801561001057600080fd5b50600436106100575760003560e01c80632e4546cd1461005c57806353621b691461008e578063947ea5ac146100aa578063a2ed5af0146100dc578063cd298ea7146100fa575b600080fd5b610076600480360381019061007191906106a6565b610118565b60405161008593929190610772565b60405180910390f35b6100a860048036038101906100a391906108ec565b610252565b005b6100c460048036038101906100bf91906106a6565b61037f565b6040516100d393929190610772565b60405180910390f35b6100e46104c9565b6040516100f19190610964565b60405180910390f35b6101026104cf565b60405161010f9190610af1565b60405180910390f35b600060205280600052604060002060009150905080600001549080600101805461014190610b42565b80601f016020809104026020016040519081016040528092919081815260200182805461016d90610b42565b80156101ba5780601f1061018f576101008083540402835291602001916101ba565b820191906000526020600020905b81548152906001019060200180831161019d57829003601f168201915b5050505050908060020180546101cf90610b42565b80601f01602080910402602001604051908101604052809291908181526020018280546101fb90610b42565b80156102485780601f1061021d57610100808354040283529160200191610248565b820191906000526020600020905b81548152906001019060200180831161022b57829003601f168201915b5050505050905083565b6001600081548092919061026590610ba2565b91905055506000604051806060016040528060015481526020018481526020018381525090508060008060015481526020019081526020016000206000820151816000015560208201518160010190816102bf9190610d96565b5060408201518160020190816102d59190610d96565b5090505060028190806001815401808255809150506001900390600052602060002090600302016000909190919091506000820151816000015560208201518160010190816103249190610d96565b50604082015181600201908161033a9190610d96565b5050507f50fb56869b8bf64d398cacc5bc31b449e5230401beeb1bc2cfa6d67853b017d6600154848460405161037293929190610772565b60405180910390a1505050565b6002818154811061038f57600080fd5b90600052602060002090600302016000915090508060000154908060010180546103b890610b42565b80601f01602080910402602001604051908101604052809291908181526020018280546103e490610b42565b80156104315780601f1061040657610100808354040283529160200191610431565b820191906000526020600020905b81548152906001019060200180831161041457829003601f168201915b50505050509080600201805461044690610b42565b80601f016020809104026020016040519081016040528092919081815260200182805461047290610b42565b80156104bf5780601f10610494576101008083540402835291602001916104bf565b820191906000526020600020905b8154815290600101906020018083116104a257829003601f168201915b5050505050905083565b60015481565b60606002805480602002602001604051908101604052809291908181526020016000905b8282101561065357838290600052602060002090600302016040518060600160405290816000820154815260200160018201805461053090610b42565b80601f016020809104026020016040519081016040528092919081815260200182805461055c90610b42565b80156105a95780601f1061057e576101008083540402835291602001916105a9565b820191906000526020600020905b81548152906001019060200180831161058c57829003601f168201915b505050505081526020016002820180546105c290610b42565b80601f01602080910402602001604051908101604052809291908181526020018280546105ee90610b42565b801561063b5780601f106106105761010080835404028352916020019161063b565b820191906000526020600020905b81548152906001019060200180831161061e57829003601f168201915b505050505081525050815260200190600101906104f3565b50505050905090565b6000604051905090565b600080fd5b600080fd5b6000819050919050565b61068381610670565b811461068e57600080fd5b50565b6000813590506106a08161067a565b92915050565b6000602082840312156106bc576106bb610666565b5b60006106ca84828501610691565b91505092915050565b6106dc81610670565b82525050565b600081519050919050565b600082825260208201905092915050565b60005b8381101561071c578082015181840152602081019050610701565b60008484015250505050565b6000601f19601f8301169050919050565b6000610744826106e2565b61074e81856106ed565b935061075e8185602086016106fe565b61076781610728565b840191505092915050565b600060608201905061078760008301866106d3565b81810360208301526107998185610739565b905081810360408301526107ad8184610739565b9050949350505050565b600080fd5b600080fd5b7f4e487b7100000000000000000000000000000000000000000000000000000000600052604160045260246000fd5b6107f982610728565b810181811067ffffffffffffffff82111715610818576108176107c1565b5b80604052505050565b600061082b61065c565b905061083782826107f0565b919050565b600067ffffffffffffffff821115610857576108566107c1565b5b61086082610728565b9050602081019050919050565b82818337600083830152505050565b600061088f61088a8461083c565b610821565b9050828152602081018484840111156108ab576108aa6107bc565b5b6108b684828561086d565b509392505050565b600082601f8301126108d3576108d26107b7565b5b81356108e384826020860161087c565b91505092915050565b6000806040838503121561090357610902610666565b5b600083013567ffffffffffffffff8111156109215761092061066b565b5b61092d858286016108be565b925050602083013567ffffffffffffffff81111561094e5761094d61066b565b5b61095a858286016108be565b9150509250929050565b600060208201905061097960008301846106d3565b92915050565b600081519050919050565b600082825260208201905092915050565b6000819050602082019050919050565b6109b481610670565b82525050565b600082825260208201905092915050565b60006109d6826106e2565b6109e081856109ba565b93506109f08185602086016106fe565b6109f981610728565b840191505092915050565b6000606083016000830151610a1c60008601826109ab565b5060208301518482036020860152610a3482826109cb565b91505060408301518482036040860152610a4e82826109cb565b9150508091505092915050565b6000610a678383610a04565b905092915050565b6000602082019050919050565b6000610a878261097f565b610a91818561098a565b935083602082028501610aa38561099b565b8060005b85811015610adf5784840389528151610ac08582610a5b565b9450610acb83610a6f565b925060208a01995050600181019050610aa7565b50829750879550505050505092915050565b60006020820190508181036000830152610b0b8184610a7c565b905092915050565b7f4e487b7100000000000000000000000000000000000000000000000000000000600052602260045260246000fd5b60006002820490506001821680610b5a57607f821691505b602082108103610b6d57610b6c610b13565b5b50919050565b7f4e487b7100000000000000000000000000000000000000000000000000000000600052601160045260246000fd5b6000610bad82610670565b91507fffffffffffffffffffffffffffffffffffffffffffffffffffffffffffffffff8203610bdf57610bde610b73565b5b600182019050919050565b60008190508160005260206000209050919050565b60006020601f8301049050919050565b600082821b905092915050565b600060088302610c4c7fffffffffffffffffffffffffffffffffffffffffffffffffffffffffffffffff82610c0f565b610c568683610c0f565b95508019841693508086168417925050509392505050565b6000819050919050565b6000610c93610c8e610c8984610670565b610c6e565b610670565b9050919050565b6000819050919050565b610cad83610c78565b610cc1610cb982610c9a565b848454610c1c565b825550505050565b600090565b610cd6610cc9565b610ce1818484610ca4565b505050565b5b81811015610d0557610cfa600082610cce565b600181019050610ce7565b5050565b601f821115610d4a57610d1b81610bea565b610d2484610bff565b81016020851015610d33578190505b610d47610d3f85610bff565b830182610ce6565b50505b505050565b600082821c905092915050565b6000610d6d60001984600802610d4f565b1980831691505092915050565b6000610d868383610d5c565b9150826002028217905092915050565b610d9f826106e2565b67ffffffffffffffff811115610db857610db76107c1565b5b610dc28254610b42565b610dcd828285610d09565b600060209050601f831160018114610e005760008415610dee578287015190505b610df88582610d7a565b865550610e60565b601f198416610e0e86610bea565b60005b82811015610e3657848901518255600182019150602085019450602081019050610e11565b86831015610e535784890151610e4f601f891682610d5c565b8355505b6001600288020188555050505b50505050505056fea264697066735822122024594d685f1f8eeb49d516045af92388c35f877d54691ec08ac1c19de1a2fb4e64736f6c63430008130033",
  "linkReferences": {},
  "deployedLinkReferences": {}
}